{
  "contractName": "lms",
  "abi": [
    {
      "constant": false,
      "inputs": [
        {
          "internalType": "string",
          "name": "bookName",
          "type": "string"
        },
        {
          "internalType": "uint256",
          "name": "bookId",
          "type": "uint256"
        },
        {
          "internalType": "uint256",
          "name": "bookCount",
          "type": "uint256"
        }
      ],
      "name": "addBook",
      "outputs": [],
      "payable": false,
      "stateMutability": "nonpayable",
      "type": "function"
    },
    {
      "constant": true,
      "inputs": [],
      "name": "viewBooks",
      "outputs": [
        {
          "internalType": "string[]",
          "name": "",
          "type": "string[]"
        },
        {
          "internalType": "uint256[]",
          "name": "",
          "type": "uint256[]"
        },
        {
          "internalType": "uint256[]",
          "name": "",
          "type": "uint256[]"
        },
        {
          "internalType": "uint256[]",
          "name": "",
          "type": "uint256[]"
        }
      ],
      "payable": false,
      "stateMutability": "view",
      "type": "function"
    },
    {
      "constant": false,
      "inputs": [
        {
          "internalType": "uint256",
          "name": "rollNo",
          "type": "uint256"
        },
        {
          "internalType": "uint256",
          "name": "bookId",
          "type": "uint256"
        }
      ],
      "name": "allocateBook",
      "outputs": [],
      "payable": false,
      "stateMutability": "nonpayable",
      "type": "function"
    },
    {
      "constant": false,
      "inputs": [
        {
          "internalType": "uint256",
          "name": "rollNo",
          "type": "uint256"
        },
        {
          "internalType": "uint256",
          "name": "bookId",
          "type": "uint256"
        }
      ],
      "name": "returnBook",
      "outputs": [],
      "payable": false,
      "stateMutability": "nonpayable",
      "type": "function"
    },
    {
      "constant": true,
      "inputs": [],
      "name": "listBooks",
      "outputs": [
        {
          "internalType": "uint256[]",
          "name": "",
          "type": "uint256[]"
        },
        {
          "internalType": "uint256[]",
          "name": "",
          "type": "uint256[]"
        },
        {
          "internalType": "bool[]",
          "name": "",
          "type": "bool[]"
        }
      ],
      "payable": false,
      "stateMutability": "view",
      "type": "function"
    }
  ],
  "bytecode": "0x608060405234801561001057600080fd5b50610cfb806100206000396000f3fe608060405234801561001057600080fd5b50600436106100575760003560e01c8063655241231461005c5780637b5f10e01461007d57806380d76e8214610099578063852a70e0146100b5578063ce034cf2146100d5575b600080fd5b6100646100f1565b6040516100749493929190610a6b565b60405180910390f35b61009760048036036100929190810190610863565b6102e6565b005b6100b360048036036100ae91908101906107fc565b6103f1565b005b6100bd6104b9565b6040516100cc93929190610acc565b60405180910390f35b6100ef60048036036100ea9190810190610863565b6105ea565b005b606080606080600060016002600383805480602002602001604051908101604052809291908181526020016000905b828210156101dc578382906000526020600020018054600181600116156101000203166002900480601f0160208091040260200160405190810160405280929190818152602001828054600181600116156101000203166002900480156101c85780601f1061019d576101008083540402835291602001916101c8565b820191906000526020600020905b8154815290600101906020018083116101ab57829003601f168201915b505050505081526020019060010190610120565b5050505093508280548060200260200160405190810160405280929190818152602001828054801561022d57602002820191906000526020600020905b815481526020019060010190808311610219575b505050505092508180548060200260200160405190810160405280929190818152602001828054801561027f57602002820191906000526020600020905b81548152602001906001019080831161026b575b50505050509150808054806020026020016040519081016040528092919081815260200182805480156102d157602002820191906000526020600020905b8154815260200190600101908083116102bd575b50505050509050935093509350935090919293565b60008090505b60008054905081101561034c57816001828154811061030757fe5b9060005260206000200154141561033f5760016003828154811061032757fe5b90600052602060002001600082825403925050819055505b80806001019150506102ec565b6004839080600181540180825580915050906001820390600052602060002001600090919290919091505550600582908060018154018082558091505090600182039060005260206000200160009091929091909150555060066001908060018154018082558091505090600182039060005260206000209060209182820401919006909192909190916101000a81548160ff02191690831515021790555050505050565b600083908060018154018082558091505090600182039060005260206000200160009091929091909150908051906020019061042e9291906106ee565b5050600182908060018154018082558091505090600182039060005260206000200160009091929091909150555060028190806001815401808255809150509060018203906000526020600020016000909192909190915055506003819080600181540180825580915050906001820390600052602060002001600090919290919091505550505050565b60608060606004600560068280548060200260200160405190810160405280929190818152602001828054801561050f57602002820191906000526020600020905b8154815260200190600101908083116104fb575b505050505092508180548060200260200160405190810160405280929190818152602001828054801561056157602002820191906000526020600020905b81548152602001906001019080831161054d575b50505050509150808054806020026020016040519081016040528092919081815260200182805480156105d857602002820191906000526020600020906000905b82829054906101000a900460ff161515815260200190600101906020826000010492830192600103820291508084116105a25790505b50505050509050925092509250909192565b60008090505b60048054905081101561068457826004828154811061060b57fe5b90600052602060002001541480156106395750816005828154811061062c57fe5b9060005260206000200154145b156106775760006006828154811061064d57fe5b90600052602060002090602091828204019190066101000a81548160ff0219169083151502179055505b80806001019150506105f0565b600090505b6000805490508110156106e95781600182815481106106a457fe5b906000526020600020015414156106dc576001600382815481106106c457fe5b90600052602060002001600082825401925050819055505b8080600101915050610689565b505050565b828054600181600116156101000203166002900490600052602060002090601f016020900481019282601f1061072f57805160ff191683800117855561075d565b8280016001018555821561075d579182015b8281111561075c578251825591602001919060010190610741565b5b50905061076a919061076e565b5090565b61079091905b8082111561078c576000816000905550600101610774565b5090565b90565b600082601f8301126107a457600080fd5b81356107b76107b282610b45565b610b18565b915080825260208301602083018583830111156107d357600080fd5b6107de838284610c4e565b50505092915050565b6000813590506107f681610ca1565b92915050565b60008060006060848603121561081157600080fd5b600084013567ffffffffffffffff81111561082b57600080fd5b61083786828701610793565b9350506020610848868287016107e7565b9250506040610859868287016107e7565b9150509250925092565b6000806040838503121561087657600080fd5b6000610884858286016107e7565b9250506020610895858286016107e7565b9150509250929050565b60006108ab8383610a14565b60208301905092915050565b60006108c38383610a23565b905092915050565b60006108d78383610a5c565b60208301905092915050565b60006108ee82610ba1565b6108f88185610bf4565b935061090383610b71565b8060005b8381101561093457815161091b888261089f565b975061092683610bcd565b925050600181019050610907565b5085935050505092915050565b600061094c82610bac565b6109568185610c05565b93508360208202850161096885610b81565b8060005b858110156109a4578484038952815161098585826108b7565b945061099083610bda565b925060208a0199505060018101905061096c565b50829750879550505050505092915050565b60006109c182610bb7565b6109cb8185610c16565b93506109d683610b91565b8060005b83811015610a075781516109ee88826108cb565b97506109f983610be7565b9250506001810190506109da565b5085935050505092915050565b610a1d81610c38565b82525050565b6000610a2e82610bc2565b610a388185610c27565b9350610a48818560208601610c5d565b610a5181610c90565b840191505092915050565b610a6581610c44565b82525050565b60006080820190508181036000830152610a858187610941565b90508181036020830152610a9981866109b6565b90508181036040830152610aad81856109b6565b90508181036060830152610ac181846109b6565b905095945050505050565b60006060820190508181036000830152610ae681866109b6565b90508181036020830152610afa81856109b6565b90508181036040830152610b0e81846108e3565b9050949350505050565b6000604051905081810181811067ffffffffffffffff82111715610b3b57600080fd5b8060405250919050565b600067ffffffffffffffff821115610b5c57600080fd5b601f19601f8301169050602081019050919050565b6000819050602082019050919050565b6000819050602082019050919050565b6000819050602082019050919050565b600081519050919050565b600081519050919050565b600081519050919050565b600081519050919050565b6000602082019050919050565b6000602082019050919050565b6000602082019050919050565b600082825260208201905092915050565b600082825260208201905092915050565b600082825260208201905092915050565b600082825260208201905092915050565b60008115159050919050565b6000819050919050565b82818337600083830152505050565b60005b83811015610c7b578082015181840152602081019050610c60565b83811115610c8a576000848401525b50505050565b6000601f19601f8301169050919050565b610caa81610c44565b8114610cb557600080fd5b5056fea365627a7a72315820d6f2eb29f6d880d67573e3dabcc3efa31f96129ee9ed061832493481d16660cf6c6578706572696d656e74616cf564736f6c63430005100040",
  "source": "// SPDX-License-Identifier: MIT\npragma solidity >=0.4.22 <0.9.0;\npragma experimental ABIEncoderV2;\n\ncontract lms {\n  \n  string[] book_names;\n  uint[] book_ids;\n  uint[] book_counts;\n  uint[] book_a;\n\n  uint[] _brollNo;\n  uint[] _bbookId;\n  bool[] _bstatus;\n\n  function addBook(string memory bookName, uint bookId, uint bookCount) public {\n      \n      book_names.push(bookName);\n      book_ids.push(bookId);\n      book_counts.push(bookCount);\n      book_a.push(bookCount);\n  }\n\n  function viewBooks() public view returns (string[] memory, uint[] memory, uint[] memory,uint[] memory) {\n      return(book_names,book_ids,book_counts,book_a);\n  }\n\n  function allocateBook(uint rollNo, uint bookId) public {\n\n      uint i;\n\n      for(i=0;i<book_names.length;i++) {\n          if(book_ids[i]==bookId) {\n              book_a[i]-=1;\n          }\n      }\n      _brollNo.push(rollNo);\n      _bbookId.push(bookId);\n      _bstatus.push(true);\n\n\n  }\n\n  function returnBook(uint rollNo, uint bookId) public {\n\n      uint i;\n\n      for(i=0;i<_brollNo.length;i++) {\n          if(_brollNo[i]==rollNo && _bbookId[i]==bookId) {\n              _bstatus[i]=false;\n          }\n      }\n\n      for(i=0;i<book_names.length;i++) {\n          if(book_ids[i]==bookId) {\n              book_a[i]+=1;\n          }\n      }\n  }\n\n  function listBooks() public view returns(uint[] memory, uint[] memory, bool[] memory) {\n      return (_brollNo,_bbookId,_bstatus);\n  }\n\n  \n}\n",
  "sourcePath": "/Users/maddysravs/library-management-system/contracts/lms.sol",
  "compiler": {
    "name": "solc",
    "version": "0.5.16+commit.9c3226ce.Emscripten.clang"
  },
  "schemaVersion": "3.4.7",
  "updatedAt": "2022-06-30T17:34:33.277Z",
  "networkType": "ethereum",
  "devdoc": {
    "methods": {}
  },
  "userdoc": {
    "methods": {}
  }
}