{
  "contractName": "register",
  "abi": [
    {
      "constant": false,
      "inputs": [
        {
          "internalType": "address",
          "name": "wallet",
          "type": "address"
        },
        {
          "internalType": "string",
          "name": "name",
          "type": "string"
        },
        {
          "internalType": "uint256",
          "name": "rollNo",
          "type": "uint256"
        },
        {
          "internalType": "uint256",
          "name": "password",
          "type": "uint256"
        }
      ],
      "name": "registerStudent",
      "outputs": [],
      "payable": false,
      "stateMutability": "nonpayable",
      "type": "function"
    },
    {
      "constant": true,
      "inputs": [],
      "name": "viewStudents",
      "outputs": [
        {
          "internalType": "uint256[]",
          "name": "",
          "type": "uint256[]"
        },
        {
          "internalType": "uint256[]",
          "name": "",
          "type": "uint256[]"
        },
        {
          "internalType": "address[]",
          "name": "",
          "type": "address[]"
        },
        {
          "internalType": "string[]",
          "name": "",
          "type": "string[]"
        }
      ],
      "payable": false,
      "stateMutability": "view",
      "type": "function"
    },
    {
      "constant": true,
      "inputs": [
        {
          "internalType": "address",
          "name": "wallet",
          "type": "address"
        },
        {
          "internalType": "uint256",
          "name": "password",
          "type": "uint256"
        }
      ],
      "name": "loginStudent",
      "outputs": [
        {
          "internalType": "bool",
          "name": "",
          "type": "bool"
        }
      ],
      "payable": false,
      "stateMutability": "view",
      "type": "function"
    }
  ],
  "bytecode": "0x608060405234801561001057600080fd5b50610b03806100206000396000f3fe608060405234801561001057600080fd5b50600436106100415760003560e01c80631b6c62651461004657806381295bb514610067578063bf95c8b914610097575b600080fd5b61004e6100b3565b60405161005e949392919061085b565b60405180910390f35b610081600480360361007c9190810190610644565b6102de565b60405161008e91906108bc565b60405180910390f35b6100b160048036036100ac91908101906105c9565b6103a3565b005b60608060608060006001600260038380548060200260200160405190810160405280929190818152602001828054801561010c57602002820191906000526020600020905b8154815260200190600101908083116100f8575b505050505093508280548060200260200160405190810160405280929190818152602001828054801561015e57602002820191906000526020600020905b81548152602001906001019080831161014a575b50505050509250818054806020026020016040519081016040528092919081815260200182805480156101e657602002820191906000526020600020905b8160009054906101000a900473ffffffffffffffffffffffffffffffffffffffff1673ffffffffffffffffffffffffffffffffffffffff168152602001906001019080831161019c575b5050505050915080805480602002602001604051908101604052809291908181526020016000905b828210156102ca578382906000526020600020018054600181600116156101000203166002900480601f0160208091040260200160405190810160405280929190818152602001828054600181600116156101000203166002900480156102b65780601f1061028b576101008083540402835291602001916102b6565b820191906000526020600020905b81548152906001019060200180831161029957829003601f168201915b50505050508152602001906001019061020e565b505050509050935093509350935090919293565b600080600090505b600280549050811015610397578373ffffffffffffffffffffffffffffffffffffffff166002828154811061031757fe5b9060005260206000200160009054906101000a900473ffffffffffffffffffffffffffffffffffffffff1673ffffffffffffffffffffffffffffffffffffffff1614801561037b57506001818154811061036d57fe5b906000526020600020015483145b1561038a57600191505061039d565b80806001019150506102e6565b60009150505b92915050565b6000829080600181540180825580915050906001820390600052602060002001600090919290919091505550600181908060018154018082558091505090600182039060005260206000200160009091929091909150555060028490806001815401808255809150509060018203906000526020600020016000909192909190916101000a81548173ffffffffffffffffffffffffffffffffffffffff021916908373ffffffffffffffffffffffffffffffffffffffff16021790555050600383908060018154018082558091505090600182039060005260206000200160009091929091909150908051906020019061049e9291906104a6565b505050505050565b828054600181600116156101000203166002900490600052602060002090601f016020900481019282601f106104e757805160ff1916838001178555610515565b82800160010185558215610515579182015b828111156105145782518255916020019190600101906104f9565b5b5090506105229190610526565b5090565b61054891905b8082111561054457600081600090555060010161052c565b5090565b90565b60008135905061055a81610a92565b92915050565b600082601f83011261057157600080fd5b813561058461057f82610904565b6108d7565b915080825260208301602083018583830111156105a057600080fd5b6105ab838284610a3f565b50505092915050565b6000813590506105c381610aa9565b92915050565b600080600080608085870312156105df57600080fd5b60006105ed8782880161054b565b945050602085013567ffffffffffffffff81111561060a57600080fd5b61061687828801610560565b9350506040610627878288016105b4565b9250506060610638878288016105b4565b91505092959194509250565b6000806040838503121561065757600080fd5b60006106658582860161054b565b9250506020610676858286016105b4565b9150509250929050565b600061068c83836106c4565b60208301905092915050565b60006106a48383610813565b905092915050565b60006106b8838361084c565b60208301905092915050565b6106cd816109f7565b82525050565b60006106de82610960565b6106e881856109b3565b93506106f383610930565b8060005b8381101561072457815161070b8882610680565b97506107168361098c565b9250506001810190506106f7565b5085935050505092915050565b600061073c8261096b565b61074681856109c4565b93508360208202850161075885610940565b8060005b8581101561079457848403895281516107758582610698565b945061078083610999565b925060208a0199505060018101905061075c565b50829750879550505050505092915050565b60006107b182610976565b6107bb81856109d5565b93506107c683610950565b8060005b838110156107f75781516107de88826106ac565b97506107e9836109a6565b9250506001810190506107ca565b5085935050505092915050565b61080d81610a09565b82525050565b600061081e82610981565b61082881856109e6565b9350610838818560208601610a4e565b61084181610a81565b840191505092915050565b61085581610a35565b82525050565b6000608082019050818103600083015261087581876107a6565b9050818103602083015261088981866107a6565b9050818103604083015261089d81856106d3565b905081810360608301526108b18184610731565b905095945050505050565b60006020820190506108d16000830184610804565b92915050565b6000604051905081810181811067ffffffffffffffff821117156108fa57600080fd5b8060405250919050565b600067ffffffffffffffff82111561091b57600080fd5b601f19601f8301169050602081019050919050565b6000819050602082019050919050565b6000819050602082019050919050565b6000819050602082019050919050565b600081519050919050565b600081519050919050565b600081519050919050565b600081519050919050565b6000602082019050919050565b6000602082019050919050565b6000602082019050919050565b600082825260208201905092915050565b600082825260208201905092915050565b600082825260208201905092915050565b600082825260208201905092915050565b6000610a0282610a15565b9050919050565b60008115159050919050565b600073ffffffffffffffffffffffffffffffffffffffff82169050919050565b6000819050919050565b82818337600083830152505050565b60005b83811015610a6c578082015181840152602081019050610a51565b83811115610a7b576000848401525b50505050565b6000601f19601f8301169050919050565b610a9b816109f7565b8114610aa657600080fd5b50565b610ab281610a35565b8114610abd57600080fd5b5056fea365627a7a72315820ec98f611aeb0c86675784813100aafc3fce8e10cd1867a5147c6e5edd84b41c46c6578706572696d656e74616cf564736f6c63430005100040",
  "source": "// SPDX-License-Identifier: MIT\npragma solidity >=0.4.22 <0.9.0;\npragma experimental ABIEncoderV2;\n\ncontract register {\n  \n  uint[] rollNos;\n  uint[] passwords;\n  address[] studentWallets;\n  string[] studentNames;\n\n  function registerStudent(address wallet,string memory name,uint rollNo,uint password) public {\n    rollNos.push(rollNo);\n    passwords.push(password);\n    studentWallets.push(wallet);\n    studentNames.push(name);\n  }\n\n  function viewStudents() public view returns (uint[] memory, uint[] memory, address[] memory, string[] memory) {\n    return (rollNos,passwords,studentWallets,studentNames);\n  }\n\n  function loginStudent(address wallet,uint password) public view returns(bool) {\n\n    uint i;\n    for(i=0;i<studentWallets.length;i++) {\n      if(studentWallets[i]==wallet && password==passwords[i]) {\n        return true;\n      }\n    }\n    return false;\n  }\n}\n",
  "sourcePath": "/Users/maddysravs/library-management-system/contracts/register.sol",
  "compiler": {
    "name": "solc",
    "version": "0.5.16+commit.9c3226ce.Emscripten.clang"
  },
  "schemaVersion": "3.4.7",
  "updatedAt": "2022-06-30T17:34:32.934Z",
  "networkType": "ethereum",
  "devdoc": {
    "methods": {}
  },
  "userdoc": {
    "methods": {}
  }
}